:020000040000fa
:10000000f0ff0320b90c00007716000079160000fd
:100010007d1600007f160000811600000000000021
:100020000000000000000000000000002716000093
:100030007b160000000000002716000027160000b5
:1000400027160000271600002716000027160000bc
:1000500027160000271600002716000027160000ac
:10006000271600002716000027160000271600009c
:10007000271600002716000027160000271600008c
:10008000271600002716000027160000271600007c
:10009000271600002716000027160000271600006c
:1000a000271600002716000027160000271600005c
:1000b000271600002716000027160000271600004c
:1000c000271600002716000027160000271600003c
:1000d000271600002716000027160000271600002c
:1000e0002716000027160000000000000000000096
:1000f0000000000027160000271600002716000049
:1001000027160000271600002716000027160000fb
:100110002716000027160000e9110000e911000071
:10012000e9110000e9110000271600002716000061
:1001300027160000271600002716000027160000cb
:1001400027160000271600002716000027160000bb
:1001500027160000271600002716000027160000ab
:10016000271600002716000027160000271600009b
:10017000271600002716000027160000271600008b
:10018000271600002716000027160000271600007b
:10019000271600002716000027160000271600006b
:1001a000271600002716000027160000271600005b
:1001b000271600002716000027160000271600004b
:1001c000271600002716000027160000271600003b
:1001d000271600002716000027160000271600002b
:1001e00027160000271600002716000075140000cf
:1001f000271600002716000027160000271600000b
:1002000027160000271600002716000027160000fa
:1002100027160000271600002716000027160000ea
:1002200027160000271600002716000027160000da
:1002300027160000271600002716000027160000ca
:1002400027160000271600002716000027160000ba
:1002500027160000271600002716000027160000aa
:04026000271600005d
:020000040000fa
:10026400f8b500bff8bc08bc9e4670473d130000bb
:10027400f8b500bff8bc08bc9e46704719130000cf
:020000040000fa
:100284002de9f8430546d0f81120b84b1c68b84b4b
:1002940043f82420b0f91a204ab1b64b1b689c429b
:1002a400aebfe31ac3f580431b199a420adb6b7e87
:1002b400042b00f23e81dfe813f012001900320033
:1002c4000d013601002bc6bf4ef6544696fbf3f6dd
:1002d4004ff0ff36304600f0c5feae83e7e7b4f5d5
:1002e400967f40f3268101236b7622e10e2ccebf4c
:1002f400a4f10f0304f57f5331339d4951f82420b1
:100304009bb251f82310521ad5f81510b2eb910f85
:1003140040f30f81984a136002236b7609e1092c9c
:10032400cebfa4f10a0204f57f52363292b2092af2
:10033400cebfa2f10a0002f57f5036308c4951f845
:10034400226051f824108e4240f3f380884951f81a
:10035400226051f820108e4240f3eb80501c0121a2
:1003640002f58048824e8a42acbfa2eb010ca8eb96
:10037400010c0746b0f5804fa8bfa0f5804756f89a
:1003840022e056f82cc0e645c0f2d38056f822c0cd
:1003940056f82770bc45c0f2cc80013101300a29df
:1003a400e1d1744a1268944204dac2f5804202eb45
:1003b400040c01e0a4eb020c0ffa8cfca5f81ac0a3
:1003c4004feaec0e0eeb4e0e6c4aa2f800e07746b4
:1003d4000ef146029442aebfa21ac2f5804212192f
:1003e40012b2674802801646bef1000f00f0b380d7
:1003f400644947f6ff78dff89c9100bf39f9120091
:100404008142b8bf01468045a8bf804601325042b0
:10041400c2f30d02c0f30d0058bf4242bef1010efb
:10042400ecd1a1eb0801ca00574880fb0210d11798
:10043400c1eba0014144298500229646dff854818e
:100444000fe038f916208a42ccbf0022012201367f
:100454007042c6f30d06c0f30d0058bf4642013f7b
:1004640016d0012a0ad050b20028ead0022aeed1ce
:1004740038f916008842d8bf0122e8e738f9160097
:100484008842e4dd0ef1010e5ffa8efe1a46dee7c5
:100494000ef1010e5ffa8efe85f82ae0bef1020f1e
:1004a40014d0012385f82b30bcf1000fc6bf4ef6e3
:1004b400544696fbfcf64ff0ff36304600f0d2fd72
:1004c400ae832c4b1c6003236b7632e0012385f84a
:1004d4002c30e9e7042ccebf631f04f57f533b3374
:1004e400234a52f82410d5f81520b1ebd20f20d2ac
:1004f4009bb21f4951f8233051f824105b1ab3eb17
:10050400121f16d2214b1c6004236b761a4b1b68f6
:100514009c42aebfe31ac3f580431b191bb21c4aad
:100524001360ab8405e01a4b1b68013b0dd4184ad9
:10053400136001346342c4f30d04c3f30d0358bfc5
:100544005c420a4b1c60bde8f883114b00221a6020
:1005540001236b76ede7332385f828306ff04c03e5
:1005640085f82930012385f82a309ae7249301205d
:10057400000000202c930120309301204c93012093
:100584004e9301200080ffff676666662893012072
:0805940020930120000001206a
:020000040000fa
:10059c002de9f04383b0002000f07cff002184485b
:1005ac0001f052f801f006f800f0e0ff00f0beff99
:1005bc004ff47a6200217f4801f01cf87e4b032235
:1005cc001a70fc2283f82d2000225a767b4f7c4d2a
:1005dc001c46dff8e08108f69e76e5e02b7843b9ff
:1005ec0000f0dcff0028f9d04946384600f0a2fba9
:1005fc00f4e7204600f0aafeb4f9010001f03cf843
:10060c00a4f8030000f054fc8146b4f9030000f098
:10061c00f3fc3b68012b07d0022b00f0ab80b4f944
:10062c000330a4f8053001e0a4f80590b4f90500f6
:10063c0048f2e80303fb00f3624a82fb0312db1768
:10064c00c3eb5233a4f8093000f038ffb4f90500bd
:10065c0000f09cfea4f80b0001f002f8c4f80d00a9
:10066c0000f00efec4f8110000f090fcc4f8150068
:10067c002046fff701fe00f047ffe08300f0a4fee8
:10068c00208400f0d9fe6084204600f019fd4e4a0b
:10069c0011884b1c9bb21380626842f30f2228f81e
:1006ac001120b3f5fa6f79d3424632f90209844628
:1006bc004ff0000e714600bf32f9023f194403fba4
:1006cc0003ee9842b8bf18469c45a8bf9c46b24260
:1006dc00f2d13e4b83fb0192c917c1ebe21183fbb4
:1006ec000e324feaee73c3ebe21301fb1131a0ebb8
:1006fc000c031bb2312b40dd354a91423fdc41f2f9
:10070c00873291423ddcc82bccbf00230123dab2e7
:10071c0030490978914236d12f48c15c0131c9b2b8
:10072c00c154022937d9a5218df802105a218df810
:10073c00031000218df804108df805108df80610ab
:10074c00022a04d802aa1344012203f8042c012122
:10075c000df1020000f08ef9032101a800f08af9d6
:10076c0001210df1030000f085f91b4b00221a80ca
:10077c009a7010e0a4f8050058e70223c7e702239b
:10078c00c5e70123c3e714490020088088700120c5
:10079c00c854104b1a700c4b00221a802e21204684
:1007ac0000f068f900232b704ff0010918e700bf27
:1007bc006116000000800120389201203493012042
:1007cc00439301206766666652930120d34d6210f5
:0c07dc0020a1070054930120409301204d
:020000040000fa
:1007e800d89201201c000000000000006890012041
:1007f8000001000000000000b89101204000000046
:100808000000000004930120080000000000000020
:100818006692012002000000000000000c930120f5
:100828000c00000000000000689201202800000071
:1008380000000000b8920120200000000000000025
:10084800189301200400000000000000909201208d
:1008580028000000000000001c9301200400000094
:1008680000000000a08f0120c80000000000000068
:10087800449301200200000000000000f8910120cc
:100888004000000000000000469301200600000020
:100898000000000020930120040000000000000078
:1008a8000000012000800000000000004c9301209f
:1008b800060000000000000024930120040000004e
:1008c80000000000000000200000010000000000ff
:1008d800289301200c000000000000004093012034
:1008e8000300000000000000389201202e000000e4
:1008f8000000000034930120040000000000000004
:100908005293012002000000000000000080012036
:10091800a00f000000000000f49201201000000069
:1009280000000000439301200100000000000000c7
:10093800549301200100000001000000ff000000a6
:100948003893012004000000000000006891012095
:1009580050000000000000003c930120040000004b
:1009680000000000000000000000000066666666e7
:020000040000fa
:10097800394b00221a7403f50063384a9a621a4602
:10098800536813f0100ffbd1354b4222c3f8842073
:100998001a4600bfd2f8843013f0400ffad0314b1a
:1009a80000229a6377225a631a46d36b13f0040f16
:1009b800fbd12c4b022283f830201a46d36b13f05c
:1009c800020ffbd1274a136c03f00303032bfad160
:1009d800254b01225a711a46d37813f0010ffbd028
:1009e8001f4b224a1a621a46536813f0040ffbd1b0
:1009f8001b4b1f4a5a621a46536813f0080ffbd163
:100a0800174b4122c3f8a4201a4600bfd2f8a430dd
:100a180013f0400ffad0124b4122c3f8dc201a46db
:100a2800d2f8dc3013f0400ffad00d4b4122c3f856
:100a380020211a46d2f8203113f0400ffad00a4b81
:100a48006ff07f421a6144f2ff725a61094a9a6153
:100a580080221a62704700bf00140040060130006f
:100a6800001c004000100040000800400701010081
:080a7800070102005682010093
:020000040000fa
:100a80002de9f84300295ed00f4600242f4e304b4d
:100a900000f1010edff8bcc006e00cf801809a609e
:100aa000621c0134974244d9726802f00702012a9d
:100ab00018d09968dd684a1cd3f81080424528bfd9
:100ac0000022954236d010f80480756805f00705bd
:100ad000012de2d14d000cf81180691c00250cf8a5
:100ae0000150dce7d3f80880d96808f101021d69dc
:100af000aa4228bf002291421cd01ef8145010f8c0
:100b0000141041ea0521756805f00705012d05d08f
:100b1000c9b20cf808109a60621cc2e74fea480597
:100b20005ffa81f90cf818900135090a0cf80510e4
:100b3000f1e7144600f02cfd10b1044b01229a7528
:100b40002046bde8f8830c46f4e700bf00200141d1
:080b5000b8910120e89001209a
:020000040000fa
:100b58002de9f041294e2a4c4ff00108294f13e0a6
:100b6800226afab1616a236a40469847a36a013348
:100b7800226b934228bf002314e0a26aedb2bd5451
:100b8800a36294f83430fbb9337e13f0040f32d0eb
:100b9800b56aa36a0133226b934228bf0023e26a35
:100ba8009a42ddd0e26a9a42eed0726802f00702f9
:100bb800012ae2d1a16a4a00e8b207f8110001321d
:100bc800c5f30725bd54dbe700f0eafc236a002bd8
:100bd800dad0616a94f83c3033b1a36b9842d3d32e
:100be800236a00209847cfe7a36b9842ccd1236aa9
:100bf80000209847c8e7bde8f08100bf0020014108
:080c0800b89101206890012061
:020000040000fa
:100c100070b582b0254d264c264e14e0f25c8df85e
:100c20000620013322699a4298bf0023e3606b6873
:100c300003f00703012b14bf9df80630bdf8063002
:100c4000ab62237dbbb92b7e13f0010f2cd0a268c1
:100c5000e3689a4225d06a6802f00702012addd1d2
:100c60005a0016f813108df806100132b25c8df898
:100c700007200133d6e700f0affc2368002be2d059
:100c80006168237f33b1a3699842dcd323680320d2
:100c90009847d8e7a3699842d5d12368032098479d
:100ca000d1e7024b01221a7502b070bd002001414c
:080cb000b8910120e890012039
:020000040000fa
:100cb80008b5194b9847194b9847eff3108172b64e
:100cc800174ad2f8883043f47003c2f88830bff36b
:100cd8004f8fbff36f8f01b962b6124a936823f042
:100ce800010393601346da6812f0010ffbd10d4b34
:100cf80024225a6001229a6000f084fb0a4b23f0f8
:100d08007f03074a9360094b9847094b9847094b5b
:100d18009847fff73ffcfee78316000083160000a4
:100d280000ed00e000600041000000008d110000af
:080d3800831600008316000081
:020000040000fa
:100d40002de9f0411c4ad36a956a89b30e46ab423d
:100d500008bf002227d00122dff864c0174ca0f1a1
:100d6000020e0138144f0ce0e15c81540133396b01
:100d7000994298bf0023b24214d2511cab4212d008
:100d80000a46dcf8041001f007010129ecd15900f2
:100d900014f813800ef812800131615c00f8121013
:100da0000133e4e71d46044bdd621046bde8f081e7
:100db0001d460a46f7e700bfb89101206890012060
:040dc00000200141cd
:020000040000fa
:100dc4001c4bda6822f4e0621204120c42f0bf6297
:100dd40042f40032da60bff35f8f62b6164ae02154
:100de40082f836134ff48000506082f837134ff4c2
:100df4000000506082f838134ff08070506082f821
:100e040039134ff00070506082f86b134ff4006197
:100e1400d1605a6a42f480225a625a6942f010023e
:100e24005a615a6a42f400325a625a6a42f480326f
:0c0e34005a62704700ed00e000e100e0b1
:020000040000fa
:100e40001b4b1c4a1a604ef28a029a814ff44032c0
:100e50005a601a46d369002bfcd1154a136843f037
:100e600002031360d369002bfcd1134b00221a62da
:100e70009a62da6283f8342083f83c209a63da8736
:100e80001a609a60da601a751a779a61084b5b6883
:100e900003f00703012b084b14bf802240221a6382
:100ea0001a61034b80229a7504229a75704700bf1d
:0c0eb0000020014104011240b891012013
:020000040000fa
:100ebc00f0b4184b1f68184b23f817003a4607f18b
:100ecc00140600211d46154c84fb0230d317c3ebce
:100edc00e00303eb8303a2eb830335f913301944ce
:100eec000132b242f0d10a3101370c4880fb073293
:100efc00fb17c3ebe20303eb8303a7eb8307054b61
:100f0c001f6080fb0130c917c1ebe00000b2f0bce0
:100f1c00704700bf109301206892012067666666d7
:020000040000fa
:100f2c00194b012183f84310102283f8312002f170
:100f3c000052c3f880204ff00342c3f8902083f88e
:100f4c00c010002283f8c420052083f8d80083f851
:100f5c00d91083f8dd20062083f8df0083f8b01069
:100f6c0083f8b220332183f8bc1083f8be2083f8b9
:100f7c00bf204ff48021c3f80011c3f8101183f87f
:0c0f8c00522183f8392170470080004199
:020000040000fa
:100f9800174b1b68834209d2154b1860154b642206
:100fa8001a80154b41f287321a800ae0114ab2f9c9
:100fb80000204ab1013a0f4b1a800f4bb3f90030a9
:100fc8006bb90b4b186870470a4a642111805a099b
:100fd80001329342f1d99b1a054a1360ede7013bb0
:100fe8001bb2054a1380002bebd1014b1860e8e7d0
:0c0ff8000c93012066920120449301201c
:020000040000fa
:1010040070b4164b1e68164b23f81600334606f1cf
:1010140010050020124c594203f00f0201f00f0199
:1010240058bf4a4234f9122010440133ab42f2d182
:1010340000f108030136724206f00f0602f00f02b7
:1010440058bf5642054a16601846002bb8bf03f134
:101054000f0040f30f1070bc704700bf14930120c1
:04106400b89201201d
:020000040000fa
:1010680010b4144bb3f900300f2b1fdd124a134b89
:10107800b3f90010124b53f8211013885b1a138030
:101088000e49b1f900300e4a42f823000a4a148882
:101098002044108001335a4203f00f0302f00f027c
:1010a80058bf53420b805df8044b70470133014a27
:1010b8001380e5e7469301204a93012048930120d5
:0410c800f89101207a
:020000040000fa
:1010cc00154bb3f90020b2b110b41449b1f900308a
:1010dc00134c34f81340c484013a0f480280013396
:1010ec005a42c3f30d03c2f30d0258bf53420b8097
:1010fc005df8044b7047002380f8263080f82730c9
:10110c0080f8283080f8293080f82a3080f82b308d
:10111c0080f82c30704700bf4c9301204e93012077
:04112c00000001209e
:020000040000fa
:10113000154b01221a801a46136b13f0010ffbd1d5
:101140004ff080131b681a0902f07002d90001f4f5
:10115000e0610a43c3f382031a430b4ba3f8482010
:101160004ff480621a803f22da7283221a724ff49f
:10117000c6729a800022da80072283f82e201a464f
:0c118000136b002bfcd17047001c0043d7
:020000040000fa
:10118c000e4a38b5002313600d4a0e4c13600e4afc
:10119c000e4d13600e4a13600e4a13600e4a5362d2
:1011ac0013610123936000f069fa00f067faac4216
:1011bc0000d338bd54f8043b9847f8e73c93012022
:1011cc0074910120700200007091012074020000e3
:0c11dc00689101206c91012078910120a5
:020000040000fa
:1011e80008b5144b9b7df3b1124a137edbb2927d96
:1011f80012f0800f18d10f4a137edbb2927d12f0e5
:10120800010f04d013f0010f01d0fff7fdfc094acc
:10121800137edbb2927d12f0040f04d013f0040f9a
:1012280001d0fff795fc08bd13f0800fe3d000f064
:0812380003f8e0e7002001418a
:020000040000fa
:1012400008b5104b5b8b13f0070300d108bd0e4aa5
:10125000d3870c4b80221a7607225a831b7e13f009
:10126000040f05d0074b9a6a1a7e12f0040ffad1c8
:10127000054b1b6a002be9d0034b596a1b6a0220fd
:0c1280009847e3e700200141b8910120ed
:020000040000fa
:10128c0010b40e4b1c680e4941f824000b1fc431de
:10129c00002000bf53f8042f10448b42fad1631c7a
:1012ac00084981fb0321da17c2eb2112322101fb21
:1012bc001233024a13605df8044b70471c930120f3
:0812cc00a08f01201f85eb51ea
:020000040000fa
:1012d4000e4b01221a601a46136913f0010ffbd159
:1012e4000a4b4ff404721a6003221a7343f69722ce
:1012f4009a8333229a72064a0021116001225a729b
:101304001a461369002bfcd1704700bf0038004017
:04131400049301201d
:020000040000fa
:1013180010b5054c227832b9044b13b10448aff329
:1013280000800123237010bdd89201200000000026
:101338000000000008b5034b1bb103490348aff395
:10134800008008bd00000000dc92012000000000c1
:020000040000fa
:1013580010b504460d4b5a6872b10c4bd868411c45
:10136800d96032f910209b68994202d3074b0021bb
:10137800d960a4f8012010bd00f0b6f80028fbd011
:1013880000f05ef9a4f80100f5e700bff49201202f
:020000040000fa
:1013980030b40b4c23680b4d55f82320811a45f8bf
:1013a80023000133084880fb0320da17c2eba002b0
:1013b80002eb8202a3eb4203236008b230bc704701
:0c13c80018930120909201206766666671
:020000040000fa
:1013d4000b4bb3f9003083b10a490b1f3c3147f67c
:1013e400ff7001e08b4207d053f8042f002af9d094
:1013f4008242b8bf10b2f5e7704747f6ff707047f6
:0814040046930120f89101203c
:020000040000fa
:10140c0070b50b480b4d4ff6ff76016821b9436858
:10141c0013b900f032f970bd83684268334000f1b3
:10142c000c0455f823302046984704eb8000ece779
:08143c00e8070000ec150000b8
:020000040000fa
:10144400094bb3f9000070b108490b1f3c3100206f
:1014540001e08b4207d053f8042f002af9d08242ce
:10146400c8bf10b2f5e7704746930120f8910120f8
:020000040000fa
:1014740008b5084b5b7a63b1064b987ac0b2332245
:101484009a72054b1b6823b118b1034b59681b684a
:0c149400984708bd003800400493012078
:020000040000fa
:1014a00008b500f0c9f8fff741fdfff765fafff74f
:1014b000c7fc00f0b9f800f05ef8fff739fefff75f
:0814c00009fffff77ffc08bde6
:020000040000fa
:1014c8000749b1f90030074a22f8130001335a429c
:1014d800c3f30d03c2f30d0258bf53420b8070478c
:0814e8005093012000000120d7
:020000040000fa
:1014f000074b93f82e3003f00103002b14bf01209b
:10150000002003d0024b012283f82e20704700bf39
:04151000001c004378
:020000040000fa
:10151400064bb3f9000000b97047054bb3f900302e
:10152400083393fbf0f000b2f6e700bf46930120c6
:041534004a930120b5
:020000040000fa
:10153800064b1b6813f0020f07d1044a136843f0e7
:1015480002031360d369002bfcd1704700200141ce
:020000040000fa
:1015580010b50023934206d113f0030018bf0120f1
:0e15680000eb930010bdc45ccc540133f2e7dd
:020000040000fa
:021576007047bc
:020000040000fa
:10157800044a138843f002031380136b13f0020f1d
:08158800fbd17047001c004379
:020000040000fa
:10159000044a9368d06883423ebf024a12699b188e
:0815a000181a7047b8910120f0
:020000040000fa
:1015a800044bd86a9b6a984282bf024a126b9b1806
:0815b800181a7047b8910120d8
:020000040000fa
:1015c000044a136843f002031360136913f0020f17
:0815d000fbd170470038004018
:020000040000fa
:1015d80010b5034b1c69fff7d7ff013c201a10bd5b
:0415e800b891012095
:020000040000fa
:1015ec001516000059150000731600007316000044
:0415fc007316000062
:020000040000fa
:1016000032b1c9b20244034603f8011b9342fbd135
:04161000704700bf60
:020000040000fa
:101614000a440023914201d10020704701f8013ba4
:02162400f8e7e5
:020000040000fa
:02162600fee7dd
:020000040000fa
:10162800024b4ff48022c3f8182170470080004114
:020000040000fa
:10163800024b40f204521a80704700bf004000413c
:020000040000fa
:0c164800014bb3f840007047001c004349
:020000040000fa
:0c165400014b186059607047049301209e
:020000040000fa
:0c166000014b01221a70704743930120d7
:020000040000fa
:06166c0000fb00f07047d6
:020000040000fa
:04167200002070479d
:020000040000fa
:02167600fee78d
:020000040000fa
:02167800fee78b
:020000040000fa
:02167a00fee789
:020000040000fa
:02167c00fee787
:020000040000fa
:02167e00fee785
:020000040000fa
:02168000fee783
:020000040000fa
:021682007047af
:020000040000fa
:021684007047ad
:020000040000fa
:021686007047ab
:020000040000fa
:021688007047a9
:020000040000fa
:0200000400807a
:044000003912003c35
:020000040000fa
:0200000400807a
:044004008000a82a66
:020000040000fa
:0200000400807a
:04400800ffffffffb8
:00000001FF
